:100000000C944A000C9474030C9474030C947403C1
:100010000C9474030C9474030C9474030C94740384
:100020000C9474030C9474030C9474030C94740374
:100030000C9474030C9474030C9474030C94740364
:100040000C9474030C9474030C9474030C94740354
:100050000C9474030C9474030C9474030C94740344
:100060000C9474030C9474030C9474030C94740334
:100070000C9474030C9474030C9474030C94740324
:100080000C9474030C9474030C9474030100012009
:100090000006F60011241FBECFEFD0E1DEBFCDBFBA
:1000A000ECE8F0E040E019C0B791A79137912791B3
:1000B000079107FD0EC097918791EF01F92FE82F67
:1000C0000BBF07900D92A217B307D9F7FE011BBE15
:1000D00004C01D92A217B307E1F7E339F40721F733
:0C00E0000E9400030C944703F894FFCF2B
:1000EC00CF93DF93EC019C01ADECBCEC0E94380388
:1000FC00AC015695479556954795569547959A0157
:10010C00220F331FCA01880F991F880F991F880F60
:10011C00991F820F931FFE01E81BF90BE05FFE4F46
:10012C008081809304119A010E94380396958795DB
:10013C0096958795969587959C01220F331F880F6E
:10014C00991F880F991F880F991F820F931F481BA7
:10015C00590BFA01E05FFE4F8081809305119E01DF
:10016C003695279536952795ABE7B4E10E94380371
:10017C00AC01569547959A01ADECBCEC0E94380346
:10018C009695879596958795969587959C01220FC0
:10019C00331F880F991F880F991F880F991F820F83
:1001AC00931F481B590BFA01E05FFE4F808180932F
:1001BC0006119E01369527953695279536952795E8
:1001CC00A5ECB0E20E943803AC01529542954F70F9
:1001DC0045275F7045279A01ADECBCEC0E943803B3
:1001EC009695879596958795969587959C01220F60
:1001FC00331F880F991F880F991F880F991F820F23
:10020C00931F481B590BFA01E05FFE4F80818093CE
:08021C000711DF91CF91089555
:100224000FC00E94590338F00E94600320F0952308
:1002340011F00C9467030C94710311240C94530370
:100244000E94A00270F3959FC1F3950F50E0551FD3
:10025400629FF001729FBB27F00DB11D639FAA2717
:10026400F00DB11DAA1F649F6627B00DA11D661F66
:10027400829F2227B00DA11D621F739FB00DA11D87
:10028400621F839FA00D611D221F749F3327A00D41
:10029400611D231F849F600D211D822F762F6A2FDD
:1002A40011249F5750409AF0F1F088234AF0EE0F42
:1002B400FF1FBB1F661F771F881F91505040A9F76F
:1002C4009E3F510580F00C9467030C9453035F3FE9
:1002D400E4F3983ED4F3869577956795B795F795AB
:1002E400E7959F5FC1F7FE2B880F911D9695879523
:0402F40097F90895D9
:1002F800ACE0B1E188E38C93E5E6F0E080818860CA
:10030800808300008081877F8083000082E48A9553
:10031800F1F700C08CE08C938081886080830000B6
:100328008081877F8083000092E49A95F1F700C06E
:1003380086E08C9380818860808300008081877F3D
:100348008083000082E48A95F1F700C081E08C93F5
:1003580080818860808300008081877F808300009F
:0E03680087E893E10197F1F700C000000895C7
:10037600CF93DF93DC016130710551F038F06230C4
:10038600710541F06330710539F007C020E805C0FA
:1003960020EC03C024E901C024ED420F40930C1168
:1003A600E5E6F0E080818860808300008081877FB9
:1003B600808380E18A95F1F700C09C91992391F0A2
:1003C6001196CBE0D1E198839081986090830000EC
:1003D6009081977F908380E18A95F1F700C09D9187
:0A03E6009111F1CFDF91CF9108953E
:1003F000E89409C097FB3EF49095809570956195BF
:100400007F4F8F4F9F4F9923A9F0F92F96E9BB2774
:100410009395F695879577956795B795F111F8CFF0
:10042000FAF4BB0F11F460FF1BC06F5F7F4F8F4F5B
:100430009F4F16C0882311F096E911C0772321F051
:100440009EE8872F762F05C0662371F096E8862FE9
:1004500070E060E02AF09A95660F771F881FDAF740
:0A046000880F9695879597F9089587
:10046A00CF930E942903811133C08CEC0E94C202EF
:10047A0084E40E94C202B8982FEE89E492E02150E7
:10048A0080409040E1F700C000000E9429038CECF4
:10049A000E94C2028EEB0E94C2020E94E202C82F90
:1004AA000E94E202682F70E0762F66276C0F711D9A
:1004BA00072E000C880B990B0E94FA0120E030E00D
:1004CA0040E85DE30E946D030E947102CB0102C005
:0804DA0080E090E0CF9108954D
:1004E2000E94A80288F09F5798F0B92F9927B75118
:1004F200B0F0E1F0660F771F881F991F1AF0BA95C6
:10050200C9F714C0B13091F00E945203B1E00895CE
:100512000C945203672F782F8827B85F39F0B93FC0
:10052200CCF3869577956795B395D9F73EF4909578
:0E0532008095709561957F4F8F4F9F4F089574
:1005400057FD9058440F551F59F05F3F71F0479584
:10055000880F97FB991F61F09F3F79F08795089569
:10056000121613061406551FF2CF4695F1DF08C088
:10057000161617061806991FF1CF869571056105A5
:04058000089408953E
:1005840098E0B89A80FF0DC0C09825E02A95F1F74D
:10059400B8982FE02A95F1F720E12A95F1F700C0E9
:1005A4000BC0C09825E02A95F1F72FE02A95F1F7C2
:1005B400B8982AE02A95F1F78695915011F7089595
:1005C40088E020E030E0B89AC09865E06A95F1F7D9
:1005D400B89895E09A95F1F7A9015695479596B381
:1005E40060E8969F900111243327242B352B9AE041
:0C05F4009A95F1F7815039F7822F089595
:1006000085B7806885BF10926D008FE0809364008D
:100610000E947C0140E050E060E070E082E091E008
:100620000E94BB010E94350299270E947600FACFF2
:10063000092E0394000C11F4882352F0BB0F40F4F0
:10064000BF2B11F460FF04C06F5F7F4F8F4F9F4F30
:0206500008950B
:10065200B89AC09880EA8A95F1F7B8988AE18A95A3
:0E066200F1F700C086B384E18A95F1F70895A0
:10067000A29FB001B39FC001A39F700D811D1124E3
:0E068000911DB29F700D811D1124911D0895D2
:10068E00EC010E9479030E947803CE010E947A0346
:06069E00CE010E9476036C
:0E06A400E894BB2766277727CB0197F90895C6
:0E06B20000240A941616170618060906089565
:0E06C00000240A941216130614060506089567
:0C06CE0097F99F6780E870E060E00895F5
:0806DA000E9412010C941803A8
:0606E2009FEF80EC08957B
:0406E8000C9400006E
:0406EC000E947400F4
:0206F00008956B
:0206F200089569
:0206F400089567
:1006F6003E0054657374206F6E652D7769726500D0
:10070600C0F9A4B0999282F880908883C6A1868E9B
:00000001FF
